BL51 BANKED LINKER/LOCATER V6.22.2.0                                                    03/31/2022  01:48:01  PAGE 1


BL51 BANKED LINKER/LOCATER V6.22.2.0, INVOKED BY:
D:\KEIL_V5\C51\BIN\BL51.EXE .\Objects\STARTUP.obj, .\Objects\main_test.obj TO .\Objects\HC89F0541_DEMO PRINT (.\Listings
>> \HC89F0541_DEMO.m51) RAMSIZE (256)


MEMORY MODEL: SMALL


INPUT MODULES INCLUDED:
  .\Objects\STARTUP.obj (?C_STARTUP)
  .\Objects\main_test.obj (MAIN_TEST)
  D:\KEIL_V5\C51\LIB\C51S.LIB (?C_INIT)
  D:\KEIL_V5\C51\LIB\C51S.LIB (?C?UIDIV)


LINK MAP OF MODULE:  .\Objects\HC89F0541_DEMO (?C_STARTUP)


            TYPE    BASE      LENGTH    RELOCATION   SEGMENT NAME
            -----------------------------------------------------

            * * * * * * *   D A T A   M E M O R Y   * * * * * * *
            REG     0000H     0008H     ABSOLUTE     "REG BANK 0"
            DATA    0008H     000AH     UNIT         ?DT?MAIN_TEST
            IDATA   0012H     0001H     UNIT         ?STACK

            * * * * * * *  X D A T A   M E M O R Y  * * * * * * *
                    0000H     FE80H                  *** GAP ***
            XDATA   FE80H     0001H     ABSOLUTE     
                    FE81H     0004H                  *** GAP ***
            XDATA   FE85H     0001H     ABSOLUTE     
                    FE86H     0002H                  *** GAP ***
            XDATA   FE88H     0001H     ABSOLUTE     
            XDATA   FE89H     0001H     ABSOLUTE     
            XDATA   FE8AH     0001H     ABSOLUTE     
                    FE8BH     0006H                  *** GAP ***
            XDATA   FE91H     0001H     ABSOLUTE     
            XDATA   FE92H     0001H     ABSOLUTE     
            XDATA   FE93H     0001H     ABSOLUTE     
            XDATA   FE94H     0001H     ABSOLUTE     
            XDATA   FE95H     0001H     ABSOLUTE     
                    FE96H     0005H                  *** GAP ***
            XDATA   FE9BH     0001H     ABSOLUTE     
                    FE9CH     0004H                  *** GAP ***
            XDATA   FEA0H     0001H     ABSOLUTE     
                    FEA1H     0001H                  *** GAP ***
            XDATA   FEA2H     0001H     ABSOLUTE     
                    FEA3H     0001H                  *** GAP ***
            XDATA   FEA4H     0001H     ABSOLUTE     
            XDATA   FEA5H     0001H     ABSOLUTE     
                    FEA6H     0001H                  *** GAP ***
            XDATA   FEA7H     0001H     ABSOLUTE     
                    FEA8H     0002H                  *** GAP ***
            XDATA   FEAAH     0001H     ABSOLUTE     
                    FEABH     0005H                  *** GAP ***
            XDATA   FEB0H     0001H     ABSOLUTE     
            XDATA   FEB1H     0001H     ABSOLUTE     
            XDATA   FEB2H     0001H     ABSOLUTE     
BL51 BANKED LINKER/LOCATER V6.22.2.0                                                  03/31/2022  01:48:01  PAGE 2


            XDATA   FEB3H     0001H     ABSOLUTE     
            XDATA   FEB4H     0001H     ABSOLUTE     
                    FEB5H     0003H                  *** GAP ***
            XDATA   FEB8H     0001H     ABSOLUTE     
            XDATA   FEB9H     0001H     ABSOLUTE     
            XDATA   FEBAH     0001H     ABSOLUTE     
                    FEBBH     0001H                  *** GAP ***
            XDATA   FEBCH     0001H     ABSOLUTE     
            XDATA   FEBDH     0001H     ABSOLUTE     
            XDATA   FEBEH     0001H     ABSOLUTE     
                    FEBFH     0001H                  *** GAP ***
            XDATA   FEC0H     0001H     ABSOLUTE     
                    FEC1H     000FH                  *** GAP ***
            XDATA   FED0H     0001H     ABSOLUTE     
            XDATA   FED1H     0001H     ABSOLUTE     
            XDATA   FED2H     0001H     ABSOLUTE     
            XDATA   FED3H     0001H     ABSOLUTE     
                    FED4H     000CH                  *** GAP ***
            XDATA   FEE0H     0002H     ABSOLUTE     
            XDATA   FEE2H     0002H     ABSOLUTE     
            XDATA   FEE4H     0002H     ABSOLUTE     
            XDATA   FEE6H     0002H     ABSOLUTE     
            XDATA   FEE8H     0002H     ABSOLUTE     
            XDATA   FEEAH     0002H     ABSOLUTE     
            XDATA   FEECH     0002H     ABSOLUTE     
            XDATA   FEEEH     0002H     ABSOLUTE     
                    FEF0H     0010H                  *** GAP ***
            XDATA   FF00H     0001H     ABSOLUTE     
            XDATA   FF01H     0001H     ABSOLUTE     
            XDATA   FF02H     0001H     ABSOLUTE     
            XDATA   FF03H     0001H     ABSOLUTE     
            XDATA   FF04H     0001H     ABSOLUTE     
            XDATA   FF05H     0001H     ABSOLUTE     
            XDATA   FF06H     0001H     ABSOLUTE     
            XDATA   FF07H     0001H     ABSOLUTE     
            XDATA   FF08H     0001H     ABSOLUTE     
            XDATA   FF09H     0001H     ABSOLUTE     
            XDATA   FF0AH     0001H     ABSOLUTE     
            XDATA   FF0BH     0001H     ABSOLUTE     
            XDATA   FF0CH     0001H     ABSOLUTE     
            XDATA   FF0DH     0001H     ABSOLUTE     
            XDATA   FF0EH     0001H     ABSOLUTE     
            XDATA   FF0FH     0001H     ABSOLUTE     
            XDATA   FF10H     0001H     ABSOLUTE     
            XDATA   FF11H     0001H     ABSOLUTE     
            XDATA   FF12H     0001H     ABSOLUTE     
            XDATA   FF13H     0001H     ABSOLUTE     
            XDATA   FF14H     0001H     ABSOLUTE     
            XDATA   FF15H     0001H     ABSOLUTE     
            XDATA   FF16H     0001H     ABSOLUTE     
            XDATA   FF17H     0001H     ABSOLUTE     
            XDATA   FF18H     0001H     ABSOLUTE     
            XDATA   FF19H     0001H     ABSOLUTE     
            XDATA   FF1AH     0001H     ABSOLUTE     
            XDATA   FF1BH     0001H     ABSOLUTE     
            XDATA   FF1CH     0001H     ABSOLUTE     
            XDATA   FF1DH     0001H     ABSOLUTE     
BL51 BANKED LINKER/LOCATER V6.22.2.0                                                  03/31/2022  01:48:01  PAGE 3


                    FF1EH     0022H                  *** GAP ***
            XDATA   FF40H     0001H     ABSOLUTE     
            XDATA   FF41H     0001H     ABSOLUTE     
            XDATA   FF42H     0001H     ABSOLUTE     
                    FF43H     001DH                  *** GAP ***
            XDATA   FF60H     0001H     ABSOLUTE     
            XDATA   FF61H     0001H     ABSOLUTE     
            XDATA   FF62H     0001H     ABSOLUTE     
            XDATA   FF63H     0001H     ABSOLUTE     
                    FF64H     0004H                  *** GAP ***
            XDATA   FF68H     0001H     ABSOLUTE     
            XDATA   FF69H     0001H     ABSOLUTE     
            XDATA   FF6AH     0001H     ABSOLUTE     
            XDATA   FF6BH     0001H     ABSOLUTE     
                    FF6CH     0014H                  *** GAP ***
            XDATA   FF80H     0001H     ABSOLUTE     
            XDATA   FF81H     0001H     ABSOLUTE     
                    FF82H     0001H                  *** GAP ***
            XDATA   FF83H     0001H     ABSOLUTE     
            XDATA   FF84H     0001H     ABSOLUTE     
            XDATA   FF85H     0001H     ABSOLUTE     
                    FF86H     0009H                  *** GAP ***
            XDATA   FF8FH     0001H     ABSOLUTE     
            XDATA   FF90H     0001H     ABSOLUTE     
            XDATA   FF91H     0001H     ABSOLUTE     
                    FF92H     0002H                  *** GAP ***
            XDATA   FF94H     0001H     ABSOLUTE     
            XDATA   FF95H     0001H     ABSOLUTE     
                    FF96H     0002H                  *** GAP ***
            XDATA   FF98H     0001H     ABSOLUTE     
            XDATA   FF99H     0001H     ABSOLUTE     
                    FF9AH     0002H                  *** GAP ***
            XDATA   FF9CH     0001H     ABSOLUTE     
                    FF9DH     0003H                  *** GAP ***
            XDATA   FFA0H     0001H     ABSOLUTE     
            XDATA   FFA1H     0001H     ABSOLUTE     
            XDATA   FFA2H     0001H     ABSOLUTE     
            XDATA   FFA3H     0001H     ABSOLUTE     
            XDATA   FFA4H     0001H     ABSOLUTE     
            XDATA   FFA5H     0001H     ABSOLUTE     
            XDATA   FFA6H     0001H     ABSOLUTE     
            XDATA   FFA7H     0001H     ABSOLUTE     
            XDATA   FFA8H     0001H     ABSOLUTE     
            XDATA   FFA9H     0001H     ABSOLUTE     

            * * * * * * *   C O D E   M E M O R Y   * * * * * * *
            CODE    0000H     0003H     ABSOLUTE     
                    0003H     0008H                  *** GAP ***
            CODE    000BH     0003H     ABSOLUTE     
            CODE    000EH     0014H     UNIT         ?PR?TIMER0_CONFIGURATION?MAIN_TEST
                    0022H     0001H                  *** GAP ***
            CODE    0023H     0003H     ABSOLUTE     
            CODE    0026H     009BH     UNIT         ?PR?TIMER0_RPT?MAIN_TEST
            CODE    00C1H     008CH     UNIT         ?C_C51STARTUP
            CODE    014DH     0055H     UNIT         ?C?LIB_CODE
            CODE    01A2H     0044H     UNIT         ?PR?TIMER_PROCESS?MAIN_TEST
            CODE    01E6H     002AH     UNIT         ?PR?UART1_CONFIG?MAIN_TEST
BL51 BANKED LINKER/LOCATER V6.22.2.0                                                  03/31/2022  01:48:01  PAGE 4


            CODE    0210H     001FH     UNIT         ?PR?GPIO_INIT?MAIN_TEST
            CODE    022FH     001EH     UNIT         ?PR?_DELAY_MS?MAIN_TEST
            CODE    024DH     001DH     UNIT         ?C_INITSEG
            CODE    026AH     0019H     UNIT         ?PR?CLK_CONFIGURATION?MAIN_TEST
            CODE    0283H     0013H     UNIT         ?PR?MAIN?MAIN_TEST
            CODE    0296H     0013H     UNIT         ?PR?UART1_RPT?MAIN_TEST
            CODE    02A9H     000BH     UNIT         ?PR?_DELAY_2US?MAIN_TEST



OVERLAY MAP OF MODULE:   .\Objects\HC89F0541_DEMO (?C_STARTUP)


SEGMENT
  +--> CALLED SEGMENT
---------------------
?C_C51STARTUP
  +--> ?PR?MAIN?MAIN_TEST
  +--> ?C_INITSEG

?PR?MAIN?MAIN_TEST
  +--> ?PR?CLK_CONFIGURATION?MAIN_TEST
  +--> ?PR?GPIO_INIT?MAIN_TEST
  +--> ?PR?UART1_CONFIG?MAIN_TEST
  +--> ?PR?TIMER0_CONFIGURATION?MAIN_TEST
  +--> ?PR?TIMER_PROCESS?MAIN_TEST



SYMBOL TABLE OF MODULE:  .\Objects\HC89F0541_DEMO (?C_STARTUP)

  VALUE           TYPE          NAME
  ----------------------------------

  -------         MODULE        ?C_STARTUP
  C:00C1H         SEGMENT       ?C_C51STARTUP
  I:0012H         SEGMENT       ?STACK
  C:0000H         PUBLIC        ?C_STARTUP
  D:00E0H         SYMBOL        ACC
  D:00F0H         SYMBOL        B
  D:0083H         SYMBOL        DPH
  D:0082H         SYMBOL        DPL
  N:0000H         SYMBOL        IBPSTACK
  N:0100H         SYMBOL        IBPSTACKTOP
  N:0080H         SYMBOL        IDATALEN
  C:00C4H         SYMBOL        IDATALOOP
  N:0000H         SYMBOL        PBPSTACK
  N:0100H         SYMBOL        PBPSTACKTOP
  N:0000H         SYMBOL        PDATALEN
  N:0000H         SYMBOL        PDATASTART
  N:0000H         SYMBOL        PPAGE
  N:0000H         SYMBOL        PPAGEENABLE
  D:00A0H         SYMBOL        PPAGE_SFR
  D:0081H         SYMBOL        SP
  C:00C1H         SYMBOL        STARTUP1
  N:0000H         SYMBOL        XBPSTACK
  N:0000H         SYMBOL        XBPSTACKTOP
BL51 BANKED LINKER/LOCATER V6.22.2.0                                                  03/31/2022  01:48:01  PAGE 5


  N:0000H         SYMBOL        XDATALEN
  N:0000H         SYMBOL        XDATASTART
  C:0000H         LINE#         126
  C:00C1H         LINE#         133
  C:00C3H         LINE#         134
  C:00C4H         LINE#         135
  C:00C5H         LINE#         136
  C:00C7H         LINE#         185
  C:00CAH         LINE#         196
  -------         ENDMOD        ?C_STARTUP

  -------         MODULE        MAIN_TEST
  C:0000H         SYMBOL        _ICE_DUMMY_
  X:FF08H         PUBLIC        P1M0
  X:FF01H         PUBLIC        P0M1
  X:FF10H         PUBLIC        P2M0
  X:FF09H         PUBLIC        P1M1
  X:FF02H         PUBLIC        P0M2
  D:0080H         PUBLIC        P0
  X:FF18H         PUBLIC        P3M0
  X:FF11H         PUBLIC        P2M1
  X:FF0AH         PUBLIC        P1M2
  X:FF03H         PUBLIC        P0M3
  D:0090H         PUBLIC        P1
  X:FF19H         PUBLIC        P3M1
  X:FF12H         PUBLIC        P2M2
  X:FF0BH         PUBLIC        P1M3
  X:FF04H         PUBLIC        P0M4
  D:00A0H         PUBLIC        P2
  X:FF1AH         PUBLIC        P3M2
  X:FF13H         PUBLIC        P2M3
  X:FF0CH         PUBLIC        P1M4
  X:FF05H         PUBLIC        P0M5
  D:00B0H         PUBLIC        P3
  X:FF1BH         PUBLIC        P3M3
  X:FF14H         PUBLIC        P2M4
  X:FF0DH         PUBLIC        P1M5
  X:FF06H         PUBLIC        P0M6
  X:FF1CH         PUBLIC        P3M4
  X:FF15H         PUBLIC        P2M5
  X:FF0EH         PUBLIC        P1M6
  X:FF07H         PUBLIC        P0M7
  X:FF1DH         PUBLIC        P3M5
  X:FF16H         PUBLIC        P2M6
  X:FF0FH         PUBLIC        P1M7
  B:00A8H.7       PUBLIC        EA
  C:0296H         PUBLIC        UART1_Rpt
  X:FF17H         PUBLIC        P2M7
  X:FEC0H         PUBLIC        SCANCON
  X:FEBDH         PUBLIC        TRMEN
  C:01A2H         PUBLIC        timer_process
  D:0008H         PUBLIC        TIM_10msFlag
  B:00A0H.6       PUBLIC        IO_1ms
  D:0009H         PUBLIC        TIM_20msFlag
  X:FE94H         PUBLIC        XTALCFG
  D:00A8H         PUBLIC        IE
  D:000AH         PUBLIC        UART1_RX_temp_data
BL51 BANKED LINKER/LOCATER V6.22.2.0                                                  03/31/2022  01:48:01  PAGE 6


  D:00F8H         PUBLIC        RSTFR
  X:FF91H         PUBLIC        PWM01_MAP
  X:FF95H         PUBLIC        PWM11_MAP
  X:FFA3H         PUBLIC        SDA_MAP
  X:FF99H         PUBLIC        PWM21_MAP
  X:FEE0H         PUBLIC        SCR0
  X:FE89H         PUBLIC        S2CON2
  X:FEE2H         PUBLIC        SCR1
  X:FEE4H         PUBLIC        SCR2
  X:FEE6H         PUBLIC        SCR3
  X:FEA2H         PUBLIC        CRCC
  X:FE85H         PUBLIC        T5CON1
  B:0080H.3       PUBLIC        IO_1s
  C:026AH         PUBLIC        CLK_Configuration
  X:FEE8H         PUBLIC        SCR4
  X:FEEAH         PUBLIC        SCR5
  X:FEECH         PUBLIC        SCR6
  X:FEEEH         PUBLIC        SCR7
  X:FFA5H         PUBLIC        SCK_MAP
  X:FFA2H         PUBLIC        SCL_MAP
  C:0283H         PUBLIC        main
  C:0210H         PUBLIC        GPIO_Init
  X:FEA4H         PUBLIC        BORC
  C:01E6H         PUBLIC        UART1_Config
  X:FFA1H         PUBLIC        RXD_MAP
  X:FEA5H         PUBLIC        BORDBC
  X:FFA0H         PUBLIC        TXD_MAP
  X:FEA7H         PUBLIC        LVDDBC
  D:0099H         PUBLIC        SBUF
  X:FEB8H         PUBLIC        PINTE0
  C:022FH         PUBLIC        _Delay_ms
  X:FEB9H         PUBLIC        PINTE1
  X:FEBCH         PUBLIC        P2INTE
  X:FEBAH         PUBLIC        PINTE2
  D:0098H         PUBLIC        SCON
  D:0089H         PUBLIC        TMOD
  D:0088H         PUBLIC        TCON
  D:000BH         PUBLIC        TIM_1secFlag
  X:FE95H         PUBLIC        SPOV_RSTEN
  D:000CH         PUBLIC        TIM_100msFlag
  B:00A0H.7       PUBLIC        IO_10ms
  B:0080H.0       PUBLIC        IO_20ms
  D:008FH         PUBLIC        CLKCON
  X:FE9BH         PUBLIC        ADCC2
  D:000DH         PUBLIC        TIM_500msFlag
  X:FE91H         PUBLIC        CLKDIV
  D:00B8H         PUBLIC        IE1
  D:00D8H         PUBLIC        IE2
  X:FF80H         PUBLIC        T0_MAP
  X:FF81H         PUBLIC        T1_MAP
  X:FEAAH         PUBLIC        RSTDBC
  X:FF83H         PUBLIC        T3_MAP
  X:FF84H         PUBLIC        T4_MAP
  X:FF85H         PUBLIC        T5_MAP
  X:FEA0H         PUBLIC        WDTCCR
  X:FEBEH         PUBLIC        TRMV
  D:00AAH         PUBLIC        IP1
BL51 BANKED LINKER/LOCATER V6.22.2.0                                                  03/31/2022  01:48:01  PAGE 7


  C:0026H         PUBLIC        TIMER0_Rpt
  D:008CH         PUBLIC        TH0
  C:02A9H         PUBLIC        _Delay_2Us
  D:00CEH         PUBLIC        TH4
  D:008AH         PUBLIC        TL0
  X:FED0H         PUBLIC        SCCH0
  X:FED1H         PUBLIC        SCCH1
  X:FED2H         PUBLIC        SCCH2
  X:FE93H         PUBLIC        CLKOUT
  D:00CDH         PUBLIC        TL4
  B:0090H.6       PUBLIC        LED
  X:FED3H         PUBLIC        SCCH3
  D:000EH         PUBLIC        UART1_RX_Flag
  D:008EH         PUBLIC        CLKSWR
  D:000FH         PUBLIC        TIM_1msFlag
  X:FFA9H         PUBLIC        RXD2_MAP
  X:FFA8H         PUBLIC        TXD2_MAP
  X:FE8AH         PUBLIC        S2BUF
  X:FF90H         PUBLIC        PWM0_MAP
  X:FFA4H         PUBLIC        SS_MAP
  X:FF94H         PUBLIC        PWM1_MAP
  X:FF98H         PUBLIC        PWM2_MAP
  X:FE88H         PUBLIC        S2CON
  X:FE80H         PUBLIC        TCON1
  D:009EH         PUBLIC        SCON2
  X:FF9CH         PUBLIC        PWM3_MAP
  X:FF8FH         PUBLIC        CLKO_MAP
  D:00CCH         PUBLIC        T4CON
  X:FE92H         PUBLIC        FREQ_CLK
  B:0080H.1       PUBLIC        IO_100ms
  D:0010H         PUBLIC        sg_1msTic
  B:0080H.2       PUBLIC        IO_500ms
  X:FEB0H         PUBLIC        PITS0
  X:FEB1H         PUBLIC        PITS1
  X:FEB2H         PUBLIC        PITS2
  X:FF6BH         PUBLIC        SEGP0EN
  X:FF63H         PUBLIC        COMP0EN
  X:FEB3H         PUBLIC        PITS3
  X:FF6AH         PUBLIC        SEGP1EN
  X:FF62H         PUBLIC        COMP1EN
  X:FEB4H         PUBLIC        PITS4
  C:000EH         PUBLIC        Timer0_Configuration
  X:FF69H         PUBLIC        SEGP2EN
  X:FF61H         PUBLIC        COMP2EN
  X:FF68H         PUBLIC        SEGP3EN
  X:FF60H         PUBLIC        COMP3EN
  X:FFA7H         PUBLIC        MISO_MAP
  X:FFA6H         PUBLIC        MOSI_MAP
  X:FF40H         PUBLIC        P00DBC
  D:00D0H         PUBLIC        PSW
  X:FF41H         PUBLIC        P01DBC
  X:FF42H         PUBLIC        P02DBC
  X:FF00H         PUBLIC        P0M0
  -------         PROC          TIMER0_CONFIGURATION
  C:000EH         LINE#         39
  C:000EH         LINE#         40
  C:000EH         LINE#         50
BL51 BANKED LINKER/LOCATER V6.22.2.0                                                  03/31/2022  01:48:01  PAGE 8


  C:0013H         LINE#         51
  C:0015H         LINE#         63
  C:0018H         LINE#         64
  C:001BH         LINE#         65
  C:001EH         LINE#         66
  C:0021H         LINE#         69
  -------         ENDPROC       TIMER0_CONFIGURATION
  -------         PROC          GPIO_INIT
  C:0210H         LINE#         70
  C:0210H         LINE#         71
  C:0210H         LINE#         73
  C:0216H         LINE#         75
  C:021CH         LINE#         80
  C:0222H         LINE#         81
  C:0224H         LINE#         82
  C:0228H         LINE#         83
  C:022AH         LINE#         84
  C:022CH         LINE#         85
  C:022EH         LINE#         86
  -------         ENDPROC       GPIO_INIT
  -------         PROC          TIMER_PROCESS
  C:01A2H         LINE#         88
  C:01A2H         LINE#         89
  C:01A2H         LINE#         90
  C:01A6H         LINE#         91
  C:01A8H         LINE#         92
  C:01ABH         LINE#         93
  C:01ABH         LINE#         94
  C:01AFH         LINE#         95
  C:01B1H         LINE#         96
  C:01B4H         LINE#         97
  C:01B4H         LINE#         98
  C:01B8H         LINE#         99
  C:01BAH         LINE#         100
  C:01BDH         LINE#         101
  C:01BDH         LINE#         102
  C:01C1H         LINE#         103
  C:01C3H         LINE#         104
  C:01C6H         LINE#         105
  C:01C6H         LINE#         106
  C:01CAH         LINE#         107
  C:01CCH         LINE#         109
  C:01CFH         LINE#         110
  C:01D4H         LINE#         111
  C:01D7H         LINE#         113
  C:01DAH         LINE#         114
  C:01DAH         LINE#         115
  C:01DEH         LINE#         116
  C:01E0H         LINE#         117
  C:01E2H         LINE#         118
  C:01E5H         LINE#         119
  C:01E5H         LINE#         120
  -------         ENDPROC       TIMER_PROCESS
  -------         PROC          MAIN
  C:0283H         LINE#         122
  C:0283H         LINE#         123
  C:0283H         LINE#         124
BL51 BANKED LINKER/LOCATER V6.22.2.0                                                  03/31/2022  01:48:01  PAGE 9


  C:0286H         LINE#         126
  C:0289H         LINE#         128
  C:028CH         LINE#         130
  C:028FH         LINE#         132
  C:0291H         LINE#         135
  C:0291H         LINE#         136
  C:0291H         LINE#         137
  C:0294H         LINE#         138
  -------         ENDPROC       MAIN
  -------         PROC          TIMER0_RPT
  C:0026H         LINE#         142
  C:0039H         LINE#         144
  C:0041H         LINE#         145
  C:0052H         LINE#         146
  C:0064H         LINE#         147
  C:0076H         LINE#         148
  C:0088H         LINE#         149
  C:009AH         LINE#         150
  C:00B0H         LINE#         151
  -------         ENDPROC       TIMER0_RPT
  -------         PROC          UART1_RPT
  C:0296H         LINE#         159
  C:0298H         LINE#         161
  C:029DH         LINE#         162
  C:029DH         LINE#         163
  C:02A0H         LINE#         167
  C:02A3H         LINE#         171
  C:02A6H         LINE#         172
  C:02A6H         LINE#         173
  -------         ENDPROC       UART1_RPT
  -------         PROC          UART1_CONFIG
  C:01E6H         LINE#         175
  C:01E6H         LINE#         176
  C:01E6H         LINE#         178
  C:01ECH         LINE#         179
  C:01F0H         LINE#         181
  C:01F6H         LINE#         182
  C:01FAH         LINE#         185
  C:01FDH         LINE#         197
  C:0200H         LINE#         198
  C:0203H         LINE#         200
  C:0206H         LINE#         202
  C:0209H         LINE#         204
  C:020CH         LINE#         206
  C:020FH         LINE#         211
  -------         ENDPROC       UART1_CONFIG
  -------         PROC          _DELAY_MS
  D:0006H         SYMBOL        fui_i
  -------         DO            
  D:0004H         SYMBOL        fui_j
  -------         ENDDO         
  C:022FH         LINE#         213
  C:022FH         LINE#         214
  C:022FH         LINE#         216
  C:0238H         LINE#         217
  C:024CH         LINE#         218
  -------         ENDPROC       _DELAY_MS
BL51 BANKED LINKER/LOCATER V6.22.2.0                                                  03/31/2022  01:48:01  PAGE 10


  -------         PROC          _DELAY_2US
  D:0006H         SYMBOL        fui_i
  C:02A9H         LINE#         220
  C:02A9H         LINE#         221
  C:02A9H         LINE#         222
  C:02B3H         LINE#         223
  -------         ENDPROC       _DELAY_2US
  -------         PROC          CLK_CONFIGURATION
  C:026AH         LINE#         225
  C:026AH         LINE#         226
  C:026AH         LINE#         230
  C:0272H         LINE#         231
  C:0275H         LINE#         232
  C:027DH         LINE#         233
  C:0282H         LINE#         234
  -------         ENDPROC       CLK_CONFIGURATION
  -------         ENDMOD        MAIN_TEST

  -------         MODULE        ?C?UIDIV
  C:014DH         PUBLIC        ?C?UIDIV
  -------         ENDMOD        ?C?UIDIV

*** WARNING L16: UNCALLED SEGMENT, IGNORED FOR OVERLAY PROCESS
    SEGMENT: ?PR?_DELAY_MS?MAIN_TEST

*** WARNING L16: UNCALLED SEGMENT, IGNORED FOR OVERLAY PROCESS
    SEGMENT: ?PR?_DELAY_2US?MAIN_TEST

Program Size: data=19.0 xdata=113 code=683
LINK/LOCATE RUN COMPLETE.  2 WARNING(S),  0 ERROR(S)
