C51 COMPILER V9.54   LCD_TN_FONT                                                           08/15/2020 23:19:58 PAGE 1   


C51 COMPILER V9.54, COMPILATION OF MODULE LCD_TN_FONT
OBJECT MODULE PLACED IN .\Objects\LCD_TN_FONT.obj
COMPILER INVOKED BY: D:\Keil_v5\C51\BIN\C51.EXE LCD_TN_FONT.c OPTIMIZE(8,SPEED) BROWSE DEBUG OBJECTEXTEND PRINT(.\Listin
                    -gs\LCD_TN_FONT.lst) TABS(2) OBJECT(.\Objects\LCD_TN_FONT.obj)

line level    source

   1          #include "LCD_TN_FONT.h"
   2          
   3          
   4          
   5          /*
   6          
   7          //定时器中断调用  dis_val  显示的值   全局变量   
   8          void lcd_tn_display(void)
   9          {
  10            switch(guc_DisFreshStep)
  11            {
  12                case 0: LCDCON &=~ 0x10;
  13                        guc_DisFreshStep = 1;
  14                        refresh_display(COM1,dis_val);
  15                        break;
  16                case 1: guc_DisFreshStep = 2;
  17                        refresh_display(COM2,dis_val);
  18                        break;
  19                case 2: guc_DisFreshStep = 3;
  20                        refresh_display(COM3,dis_val);
  21                        break;
  22                case 3: guc_DisFreshStep = 4;
  23                        refresh_display(COM4,dis_val);
  24                        break;
  25                case 4: LCDCON |= 0x10;
  26                        guc_DisFreshStep = 5;
  27                        refresh_display(COM1,dis_val);
  28                        break;
  29                case 5: guc_DisFreshStep = 6;
  30                        refresh_display(COM2,dis_val);
  31                        break;        
  32                case 6: guc_DisFreshStep = 7;
  33                        refresh_display(COM3,dis_val);
  34                        break;             
  35                case 7: guc_DisFreshStep = 0;
  36                        refresh_display(COM4,dis_val);
  37                        break; 
  38                default:guc_DisFreshStep = 0;
  39                        break; 
  40            } 
  41          }
  42          
  43          
  44          */
  45          
  46          
  47          
  48          
  49          void refresh_display(uint8_t comx,uint8_t dis_num)
  50          {
  51   1        refresh_comx(comx);
  52   1        
  53   1        switch(dis_num)
  54   1        {
C51 COMPILER V9.54   LCD_TN_FONT                                                           08/15/2020 23:19:58 PAGE 2   

  55   2          case 0:
  56   2            refresh_seg0(comx);
  57   2          break;
  58   2          
  59   2          case 1:
  60   2            refresh_seg1(comx);
  61   2          break;
  62   2          
  63   2          case 2:
  64   2            refresh_seg2(comx);
  65   2          break;
  66   2          
  67   2          case 3:
  68   2            refresh_seg3(comx);
  69   2          break;
  70   2          
  71   2          case 4:
  72   2            refresh_seg4(comx);
  73   2          break;
  74   2          
  75   2          case 5:
  76   2            refresh_seg5(comx);
  77   2          break;
  78   2          
  79   2          case 6:
  80   2            refresh_seg6(comx);
  81   2          break;
  82   2          
  83   2          case 7:
  84   2            refresh_seg7(comx);
  85   2          break;
  86   2          
  87   2          case 8:
  88   2            refresh_seg8(comx);
  89   2          break;
  90   2          
  91   2          case 9:
  92   2            refresh_seg9(comx);
  93   2          break;
  94   2          
  95   2          case 0x0a:
  96   2            refresh_sega(comx);
  97   2          break;
  98   2          
  99   2          case 0x0b:
 100   2            refresh_segb(comx);
 101   2          break;
 102   2          
 103   2          case 0x0c:
 104   2            refresh_segc(comx);
 105   2          break;
 106   2          
 107   2          case 0x0d:
 108   2            refresh_segd(comx);
 109   2          break;
 110   2          
 111   2          case 0x0e:
 112   2            refresh_sege(comx);
 113   2          break;
 114   2          
 115   2          case 0x0f:
 116   2            refresh_segf(comx);
C51 COMPILER V9.54   LCD_TN_FONT                                                           08/15/2020 23:19:58 PAGE 3   

 117   2          break;
 118   2          
 119   2          
 120   2          default :
 121   2            refresh_seg_all_clear();
 122   2          break;
 123   2          
 124   2        }
 125   1      }
 126          
 127          void refresh_seg_all_clear(void)
 128          {
 129   1        P3_0 = 0;
 130   1        P3_1 = 0;
 131   1        P3_2 = 0;
 132   1      
 133   1        P1_0 = 0;
 134   1        P1_1 = 0;
 135   1        P1_2 = 0;
 136   1        P1_3 = 0;
 137   1        P1_4 = 0;
 138   1      }
 139          
 140          
 141          
 142          void refresh_comx(uint8_t comx)
 143          {
 144   1        switch(comx)
 145   1        {
 146   2          case COM1:
 147   2            refresh_com1();
 148   2          break;
 149   2          
 150   2          case COM2:
 151   2            refresh_com2();
 152   2          break;
 153   2          
 154   2          case COM3:
 155   2            refresh_com3();
 156   2          break;
 157   2          
 158   2          case COM4:
 159   2            refresh_com4();
 160   2          break;
 161   2          
 162   2          default :
 163   2            refresh_com1();
 164   2          break;
 165   2          
 166   2        }
 167   1      }
 168          
 169          
 170          
 171          
 172          
 173          void refresh_com1(void)
 174          {
 175   1        P0_4 = 1;
 176   1        P0_5 = 0;
 177   1        P0_6 = 0;
 178   1        P0_7 = 0;
C51 COMPILER V9.54   LCD_TN_FONT                                                           08/15/2020 23:19:58 PAGE 4   

 179   1      }
 180          void refresh_com2(void)
 181          {
 182   1        P0_4 = 0;
 183   1        P0_5 = 1;
 184   1        P0_6 = 0;
 185   1        P0_7 = 0;
 186   1      }
 187          void refresh_com3(void)
 188          {
 189   1        P0_4 = 0;
 190   1        P0_5 = 0;
 191   1        P0_6 = 1;
 192   1        P0_7 = 0;
 193   1      }
 194          void refresh_com4(void)
 195          {
 196   1        P0_4 = 0;
 197   1        P0_5 = 0;
 198   1        P0_6 = 0;
 199   1        P0_7 = 1;
 200   1      }
 201          
 202          void refresh_seg0(uint8_t comx)
 203          {
 204   1        switch(comx)
 205   1        {
 206   2          case COM1:
 207   2              P3_0 = 1;
 208   2              P3_1 = 1;
 209   2          break;
 210   2          
 211   2          case COM2:
 212   2              P3_0 = 1;
 213   2              P3_1 = 0;
 214   2          break;
 215   2          
 216   2          case COM3:
 217   2              P3_0 = 1;
 218   2              P3_1 = 1;
 219   2          break;
 220   2          
 221   2          case COM4:
 222   2              P3_0 = 0;
 223   2              P3_1 = 1;
 224   2          break;
 225   2          
 226   2          default :
 227   2            P3_0 = 0;
 228   2            P3_1 = 0;
 229   2          break;
 230   2          
 231   2        }
 232   1      
 233   1      }
 234          void refresh_seg1(uint8_t comx)
 235          {
 236   1        switch(comx)
 237   1        {
 238   2          case COM1:
 239   2              P3_0 = 0;
 240   2              P3_1 = 1;
C51 COMPILER V9.54   LCD_TN_FONT                                                           08/15/2020 23:19:58 PAGE 5   

 241   2          break;
 242   2          
 243   2          case COM2:
 244   2              P3_0 = 0;
 245   2              P3_1 = 0;
 246   2          break;
 247   2          
 248   2          case COM3:
 249   2              P3_0 = 0;
 250   2              P3_1 = 1;
 251   2          break;
 252   2          
 253   2          case COM4:
 254   2              P3_0 = 0;
 255   2              P3_1 = 0;
 256   2          break;
 257   2          
 258   2          default :
 259   2            P3_0 = 0;
 260   2            P3_1 = 0;
 261   2          break;
 262   2        }
 263   1      
 264   1      }
 265          
 266          void refresh_seg2(uint8_t comx)
 267          {
 268   1        switch(comx)
 269   1        {
 270   2          case COM1:
 271   2              P3_0 = 1;
 272   2              P3_1 = 1;
 273   2          break;
 274   2          
 275   2          case COM2:
 276   2              P3_0 = 0;
 277   2              P3_1 = 1;
 278   2          break;
 279   2          
 280   2          case COM3:
 281   2              P3_0 = 1;
 282   2              P3_1 = 0;
 283   2          break;
 284   2          
 285   2          case COM4:
 286   2              P3_0 = 0;
 287   2              P3_1 = 1;
 288   2          break;
 289   2          
 290   2          default :
 291   2            P3_0 = 0;
 292   2            P3_1 = 0;
 293   2          break;
 294   2        }
 295   1      
 296   1      }
 297          
 298          void refresh_seg3(uint8_t comx)
 299          {
 300   1        switch(comx)
 301   1        {
 302   2          case COM1:
C51 COMPILER V9.54   LCD_TN_FONT                                                           08/15/2020 23:19:58 PAGE 6   

 303   2              P3_0 = 1;
 304   2              P3_1 = 1;
 305   2          break;
 306   2          
 307   2          case COM2:
 308   2              P3_0 = 0;
 309   2              P3_1 = 1;
 310   2          break;
 311   2          
 312   2          case COM3:
 313   2              P3_0 = 0;
 314   2              P3_1 = 1;
 315   2          break;
 316   2          
 317   2          case COM4:
 318   2              P3_0 = 0;
 319   2              P3_1 = 1;
 320   2          break;
 321   2          
 322   2          default :
 323   2            P3_0 = 0;
 324   2            P3_1 = 0;
 325   2          break;
 326   2        }
 327   1      
 328   1      }
 329          
 330          void refresh_seg4(uint8_t comx)
 331          {
 332   1        switch(comx)
 333   1        {
 334   2          case COM1:
 335   2              P3_0 = 0;
 336   2              P3_1 = 1;
 337   2          break;
 338   2          
 339   2          case COM2:
 340   2              P3_0 = 1;
 341   2              P3_1 = 1;
 342   2          break;
 343   2          
 344   2          case COM3:
 345   2              P3_0 = 0;
 346   2              P3_1 = 1;
 347   2          break;
 348   2          
 349   2          case COM4:
 350   2              P3_0 = 0;
 351   2              P3_1 = 0;
 352   2          break;
 353   2          
 354   2          default :
 355   2            P3_0 = 0;
 356   2            P3_1 = 0;
 357   2          break;
 358   2        }
 359   1      
 360   1      }
 361          
 362          void refresh_seg5(uint8_t comx)
 363          {
 364   1        switch(comx)
C51 COMPILER V9.54   LCD_TN_FONT                                                           08/15/2020 23:19:58 PAGE 7   

 365   1        {
 366   2          case COM1:
 367   2              P3_0 = 1;
 368   2              P3_1 = 0;
 369   2          break;
 370   2          
 371   2          case COM2:
 372   2              P3_0 = 1;
 373   2              P3_1 = 1;
 374   2          break;
 375   2          
 376   2          case COM3:
 377   2              P3_0 = 0;
 378   2              P3_1 = 1;
 379   2          break;
 380   2          
 381   2          case COM4:
 382   2              P3_0 = 0;
 383   2              P3_1 = 1;
 384   2          break;
 385   2          
 386   2          default :
 387   2            P3_0 = 0;
 388   2            P3_1 = 0;
 389   2          break;
 390   2        }
 391   1      
 392   1      }
 393          
 394          void refresh_seg6(uint8_t comx)
 395          {
 396   1        switch(comx)
 397   1        {
 398   2          case COM1:
 399   2              P3_0 = 1;
 400   2              P3_1 = 0;
 401   2          break;
 402   2          
 403   2          case COM2:
 404   2              P3_0 = 1;
 405   2              P3_1 = 1;
 406   2          break;
 407   2          
 408   2          case COM3:
 409   2              P3_0 = 1;
 410   2              P3_1 = 1;
 411   2          break;
 412   2          
 413   2          case COM4:
 414   2              P3_0 = 0;
 415   2              P3_1 = 1;
 416   2          break;
 417   2          
 418   2          default :
 419   2            P3_0 = 0;
 420   2            P3_1 = 0;
 421   2          break;
 422   2        }
 423   1      
 424   1      }
 425          
 426          
C51 COMPILER V9.54   LCD_TN_FONT                                                           08/15/2020 23:19:58 PAGE 8   

 427          void refresh_seg7(uint8_t comx)
 428          {
 429   1        switch(comx)
 430   1        {
 431   2          case COM1:
 432   2              P3_0 = 1;
 433   2              P3_1 = 1;
 434   2          break;
 435   2          
 436   2          case COM2:
 437   2              P3_0 = 0;
 438   2              P3_1 = 0;
 439   2          break;
 440   2          
 441   2          case COM3:
 442   2              P3_0 = 0;
 443   2              P3_1 = 1;
 444   2          break;
 445   2          
 446   2          case COM4:
 447   2              P3_0 = 0;
 448   2              P3_1 = 0;
 449   2          break;
 450   2          
 451   2          default :
 452   2            P3_0 = 0;
 453   2            P3_1 = 0;
 454   2          break;
 455   2        }
 456   1      
 457   1      }
 458          
 459          
 460          void refresh_seg8(uint8_t comx)
 461          {
 462   1        switch(comx)
 463   1        {
 464   2          case COM1:
 465   2              P3_0 = 1;
 466   2              P3_1 = 1;
 467   2          break;
 468   2          
 469   2          case COM2:
 470   2              P3_0 = 1;
 471   2              P3_1 = 1;
 472   2          break;
 473   2          
 474   2          case COM3:
 475   2              P3_0 = 1;
 476   2              P3_1 = 1;
 477   2          break;
 478   2          
 479   2          case COM4:
 480   2              P3_0 = 0;
 481   2              P3_1 = 1;
 482   2          break;
 483   2          
 484   2          default :
 485   2            P3_0 = 0;
 486   2            P3_1 = 0;
 487   2          break;
 488   2        }
C51 COMPILER V9.54   LCD_TN_FONT                                                           08/15/2020 23:19:58 PAGE 9   

 489   1      
 490   1      }
 491          
 492          
 493          void refresh_seg9(uint8_t comx)
 494          {
 495   1        switch(comx)
 496   1        {
 497   2          case COM1:
 498   2              P3_0 = 1;
 499   2              P3_1 = 1;
 500   2          break;
 501   2          
 502   2          case COM2:
 503   2              P3_0 = 1;
 504   2              P3_1 = 1;
 505   2          break;
 506   2          
 507   2          case COM3:
 508   2              P3_0 = 0;
 509   2              P3_1 = 1;
 510   2          break;
 511   2          
 512   2          case COM4:
 513   2              P3_0 = 0;
 514   2              P3_1 = 1;
 515   2          break;
 516   2          
 517   2          default :
 518   2            P3_0 = 0;
 519   2            P3_1 = 0;
 520   2          break;
 521   2        }
 522   1      
 523   1      }
 524          
 525          void refresh_sega(uint8_t comx)
 526          {
 527   1        switch(comx)
 528   1        {
 529   2          case COM1:
 530   2              P3_0 = 1;
 531   2              P3_1 = 1;
 532   2          break;
 533   2          
 534   2          case COM2:
 535   2              P3_0 = 1;
 536   2              P3_1 = 1;
 537   2          break;
 538   2          
 539   2          case COM3:
 540   2              P3_0 = 1;
 541   2              P3_1 = 1;
 542   2          break;
 543   2          
 544   2          case COM4:
 545   2              P3_0 = 0;
 546   2              P3_1 = 0;
 547   2          break;
 548   2          
 549   2          default :
 550   2            P3_0 = 0;
C51 COMPILER V9.54   LCD_TN_FONT                                                           08/15/2020 23:19:58 PAGE 10  

 551   2            P3_1 = 0;
 552   2          break;
 553   2        }
 554   1      
 555   1      }
 556          
 557          void refresh_segb(uint8_t comx)
 558          {
 559   1        switch(comx)
 560   1        {
 561   2          case COM1:
 562   2              P3_0 = 0;
 563   2              P3_1 = 0;
 564   2          break;
 565   2          
 566   2          case COM2:
 567   2              P3_0 = 1;
 568   2              P3_1 = 1;
 569   2          break;
 570   2          
 571   2          case COM3:
 572   2              P3_0 = 1;
 573   2              P3_1 = 1;
 574   2          break;
 575   2          
 576   2          case COM4:
 577   2              P3_0 = 0;
 578   2              P3_1 = 1;
 579   2          break;
 580   2          
 581   2          default :
 582   2            P3_0 = 0;
 583   2            P3_1 = 0;
 584   2          break;
 585   2        }
 586   1      
 587   1      }
 588          
 589          void refresh_segc(uint8_t comx)
 590          {
 591   1        switch(comx)
 592   1        {
 593   2          case COM1:
 594   2              P3_0 = 1;
 595   2              P3_1 = 0;
 596   2          break;
 597   2          
 598   2          case COM2:
 599   2              P3_0 = 1;
 600   2              P3_1 = 0;
 601   2          break;
 602   2          
 603   2          case COM3:
 604   2              P3_0 = 1;
 605   2              P3_1 = 0;
 606   2          break;
 607   2          
 608   2          case COM4:
 609   2              P3_0 = 0;
 610   2              P3_1 = 1;
 611   2          break;
 612   2          
C51 COMPILER V9.54   LCD_TN_FONT                                                           08/15/2020 23:19:58 PAGE 11  

 613   2          default :
 614   2            P3_0 = 0;
 615   2            P3_1 = 0;
 616   2          break;
 617   2        }
 618   1      
 619   1      }
 620          
 621          void refresh_segd(uint8_t comx)
 622          {
 623   1        switch(comx)
 624   1        {
 625   2          case COM1:
 626   2              P3_0 = 0;
 627   2              P3_1 = 1;
 628   2          break;
 629   2          
 630   2          case COM2:
 631   2              P3_0 = 0;
 632   2              P3_1 = 1;
 633   2          break;
 634   2          
 635   2          case COM3:
 636   2              P3_0 = 1;
 637   2              P3_1 = 1;
 638   2          break;
 639   2          
 640   2          case COM4:
 641   2              P3_0 = 0;
 642   2              P3_1 = 1;
 643   2          break;
 644   2          
 645   2          default :
 646   2            P3_0 = 0;
 647   2            P3_1 = 0;
 648   2          break;
 649   2        }
 650   1      
 651   1      }
 652          
 653          void refresh_sege(uint8_t comx)
 654          {
 655   1        switch(comx)
 656   1        {
 657   2          case COM1:
 658   2              P3_0 = 1;
 659   2              P3_1 = 0;
 660   2          break;
 661   2          
 662   2          case COM2:
 663   2              P3_0 = 1;
 664   2              P3_1 = 1;
 665   2          break;
 666   2          
 667   2          case COM3:
 668   2              P3_0 = 1;
 669   2              P3_1 = 0;
 670   2          break;
 671   2          
 672   2          case COM4:
 673   2              P3_0 = 0;
 674   2              P3_1 = 1;
C51 COMPILER V9.54   LCD_TN_FONT                                                           08/15/2020 23:19:58 PAGE 12  

 675   2          break;
 676   2          
 677   2          default :
 678   2            P3_0 = 0;
 679   2            P3_1 = 0;
 680   2          break;
 681   2        }
 682   1      
 683   1      }
 684          
 685          void refresh_segf(uint8_t comx)
 686          {
 687   1        switch(comx)
 688   1        {
 689   2          case COM1:
 690   2              P3_0 = 1;
 691   2              P3_1 = 0;
 692   2          break;
 693   2          
 694   2          case COM2:
 695   2              P3_0 = 1;
 696   2              P3_1 = 1;
 697   2          break;
 698   2          
 699   2          case COM3:
 700   2              P3_0 = 1;
 701   2              P3_1 = 0;
 702   2          break;
 703   2          
 704   2          case COM4:
 705   2              P3_0 = 0;
 706   2              P3_1 = 0;
 707   2          break;
 708   2          
 709   2          default :
 710   2            P3_0 = 0;
 711   2            P3_1 = 0;
 712   2          break;
 713   2        }
 714   1      
 715   1      }
 716          
 717          


MODULE INFORMATION:   STATIC OVERLAYABLE
   CODE SIZE        =    764    ----
   CONSTANT SIZE    =   ----    ----
   XDATA SIZE       =   ----    ----
   PDATA SIZE       =   ----    ----
   DATA SIZE        =   ----       2
   IDATA SIZE       =   ----    ----
   BIT SIZE         =   ----    ----
END OF MODULE INFORMATION.


C51 COMPILATION COMPLETE.  0 WARNING(S),  0 ERROR(S)
