C51 COMPILER V9.60.0.0   MAIN_TEST                                                         03/31/2022 01:48:00 PAGE 1   


C51 COMPILER V9.60.0.0, COMPILATION OF MODULE MAIN_TEST
OBJECT MODULE PLACED IN .\Objects\main_test.obj
COMPILER INVOKED BY: D:\Keil_v5\C51\BIN\C51.EXE main_test.c OPTIMIZE(8,SPEED) BROWSE DEBUG OBJECTEXTEND PRINT(.\Listings
                    -\main_test.lst) TABS(2) OBJECT(.\Objects\main_test.obj)

line level    source

   1          
   2          #include "main.h"
   3          
   4          uint8_t UART1_RX_temp_data = 0;
   5              
   6          uint8_t UART1_RX_Flag=0;
   7          
   8          
   9          sbit LED = P1^6;
  10          
  11          sbit key = P2^3;
  12          
  13          sbit beep = P1^5;
  14          
  15          
  16          sbit IO_1ms   = P2^6;
  17          sbit IO_10ms  = P2^7;
  18          sbit IO_20ms  = P0^0;
  19          sbit IO_100ms = P0^1;
  20          sbit IO_500ms = P0^2;
  21          sbit IO_1s    = P0^3;
  22          
  23          
  24          #define ON 0
  25          #define OFF 1
  26          
  27          uint8_t TIM_1msFlag = 0;
  28          uint8_t TIM_10msFlag = 0;
  29          uint8_t TIM_20msFlag = 0;
  30          uint8_t TIM_100msFlag = 0;
  31          uint8_t TIM_500msFlag = 0;
  32          uint8_t TIM_1secFlag = 0;
  33          
  34          uint16_t sg_1msTic = 0;
  35          
  36          
  37          void UART1_Config(void);
  38            
  39          void Timer0_Configuration(void)
  40          {
  41   1      //  /**********************************相关配置初始化**************************************/
  42   1      //  TCON1 = 0x00;           //Tx0定时器时钟为Fosc
  43   1      //  TMOD = 0x00;            //16位重装载定时器/计数器 
  44   1      //  TH0 = 0xF5;
  45   1      //  TL0 = 0x96;             //T0定时时间2ms
  46   1      //  IE |= 0x02;             //打开T0中断
  47   1      //  TCON |= 0x10;           //使能T0
  48   1        
  49   1        /**********************************TIM0配置初始化**************************************/
  50   1        TCON1 = 0x00;           //Tx0定时器时钟为Fosc
  51   1        TMOD = 0x00;            //16位重装载定时器/计数器
  52   1      
  53   1        //Tim0计算时间  = (65536 - 0xFACB) * (1 / (Fosc /Timer分频系数))
  54   1        //        = 1333 / (16000000 / 12)
C51 COMPILER V9.60.0.0   MAIN_TEST                                                         03/31/2022 01:48:00 PAGE 2   

  55   1        //        = 1 ms
  56   1      
  57   1        //定时1ms
  58   1        //反推初值  = 65536 - ((1/1000) / (1/(Fosc / Timer分频系数)))
  59   1        //        = 65536 - ((1/1000) / (1/(16000000 / 12)))
  60   1        //      = 65536 - 1333
  61   1        //      = 0xFACB
  62   1        
  63   1        TH0 = 0xFA;
  64   1        TL0 = 0xCB;             //T0定时时间1ms
  65   1        IE |= 0x02;             //打开T0中断
  66   1        TCON |= 0x10;           //使能T0
  67   1        
  68   1        //EA = 1;               //打开总中断 
  69   1      }
  70          void GPIO_Init(void)
  71          {
  72   1          //LED 
  73   1        P1M6 = 0xC0;  //推挽输出  
  74   1        //按键
  75   1        P2M3 = 0x60; //设置为非施密特数字带上拉输入
  76   1      //  //蜂鸣器
  77   1      //  P1M5 = 0xC0;  //推挽输出
  78   1        
  79   1        //  测试反转IO
  80   1        P2M6 = 0xC0;  //推挽输出
  81   1        P2M7 = 0xC0;  //推挽输出
  82   1        P0M0 = 0xC0;  //推挽输出
  83   1        P0M1 = 0xC0;  //推挽输出
  84   1        P0M2 = 0xC0;  //推挽输出
  85   1        P0M3 = 0xC0;  //推挽输出
  86   1      }
  87          
  88          void timer_process(void)
  89          {
  90   1        if (TIM_1msFlag)  {// 1ms
  91   2          IO_1ms = ~IO_1ms;
  92   2          TIM_1msFlag = 0;
  93   2        }        
  94   1        if (TIM_10msFlag) {// 10ms
  95   2          IO_10ms = ~IO_10ms;
  96   2          TIM_10msFlag = 0;
  97   2        }        
  98   1        if (TIM_20msFlag) {// 20ms
  99   2          IO_20ms = ~IO_20ms;
 100   2          TIM_20msFlag = 0;
 101   2        }        
 102   1        if (TIM_100msFlag) { // 100ms
 103   2          IO_100ms = ~IO_100ms;
 104   2          TIM_100msFlag = 0;
 105   2        }       
 106   1        if (TIM_500msFlag)  {// 500ms
 107   2          IO_500ms = ~IO_500ms;
 108   2          
 109   2          SBUF = 0x30;  //串口发送数据
 110   2          while(!(SCON & 0x02));
 111   2          SCON &=~ 0x02;
 112   2          
 113   2          TIM_500msFlag = 0;
 114   2        }        
 115   1        if (TIM_1secFlag) { // 1s
 116   2          IO_1s = ~IO_1s;
C51 COMPILER V9.60.0.0   MAIN_TEST                                                         03/31/2022 01:48:00 PAGE 3   

 117   2          LED = ~LED;
 118   2          TIM_1secFlag = 0;
 119   2        }  
 120   1      }
 121          
 122          void main()
 123          {
 124   1        CLK_Configuration();  //时钟配置
 125   1        
 126   1        GPIO_Init();
 127   1        
 128   1        UART1_Config();
 129   1        
 130   1        Timer0_Configuration();
 131   1        
 132   1        EA = 1;               //打开总中断
 133   1        
 134   1        
 135   1        while(1)
 136   1        {
 137   2          timer_process();
 138   2        }
 139   1      
 140   1      }
 141          
 142          void TIMER0_Rpt(void) interrupt TIMER0_VECTOR
 143          {
 144   1        sg_1msTic++;        
 145   1        sg_1msTic % 1 == 0 ? TIM_1msFlag = 1 : 0;        
 146   1        sg_1msTic % 10 == 0 ? TIM_10msFlag = 1 : 0;        
 147   1        sg_1msTic % 20 == 0 ? TIM_20msFlag = 1 : 0;        
 148   1        sg_1msTic % 100 == 0 ? TIM_100msFlag = 1 : 0;       
 149   1        sg_1msTic % 500 == 0 ? TIM_500msFlag = 1 : 0;       
 150   1        sg_1msTic % 1000 == 0 ? (TIM_1secFlag  = 1, sg_1msTic = 0) : 0;
 151   1      }
 152          
 153          /***************************************************************************************
 154            * @说明   UART1中断服务函数
 155            * @参数 无
 156            * @返回值 无
 157            * @注   无
 158          ***************************************************************************************/
 159          void UART1_Rpt(void) interrupt UART1_VECTOR
 160          {
 161   1        if(SCON & 0x01)           //判断接收中断标志位
 162   1        {
 163   2          UART1_RX_temp_data = SBUF;//转存8位串口接收数据
 164   2        
 165   2          //SCON &=~ 0x10;        //失能UART1接收
 166   2          
 167   2          UART1_RX_Flag=1;
 168   2          
 169   2          
 170   2      
 171   2          SCON &=~ 0x01;          //清除接收中断标志位
 172   2        }                 
 173   1      }
 174          
 175          void UART1_Config(void)
 176          {
 177   1        
 178   1        UART1_TX_Pin_Mode = 0xC2;           //设置为推挽输出
C51 COMPILER V9.60.0.0   MAIN_TEST                                                         03/31/2022 01:48:00 PAGE 4   

 179   1        UART1_RX_Pin_Mode = 0x62;           //设置为上拉输出
 180   1      
 181   1        TXD_MAP = UART1_TX_Select_Pin;      //TXD映射到引脚
 182   1        RXD_MAP = UART1_RX_Select_Pin;      //RXD映射到引脚
 183   1        
 184   1        
 185   1        T4CON = 0x06;           //T4工作模式：UART1波特率发生器
 186   1        //波特率计算
 187   1        //波特率 = 1/16 * (T4时钟源频率 / 定时器4预分频比) / (65536 - 0xFF98)
 188   1        //       = 1/16 * ((16000000 / 1) / 104)
 189   1        //     = 9615.38(误差0.16%)
 190   1      
 191   1        //波特率9600
 192   1        //反推初值 = (65536 - ((T4时钟源频率 / 定时器4预分频比) * (1 / 16)) / 波特率)
 193   1        //       = (65536 - (16000000 * (1 / 16) / 9600))
 194   1        //       = (65536 - 104.167)
 195   1        //         = FF98
 196   1          
 197   1        TH4 = 0xFF;
 198   1        TL4 = 0x98;             //波特率9600
 199   1        
 200   1        SCON2 = 0x03;           //8位UART，波特率可变
 201   1        
 202   1        SCON |= 0x10;           //UART1接收使能
 203   1      
 204   1        IE |= 0x10;             //中断寄存器 使能串口中断
 205   1        
 206   1        IP1|= 0x02;             //中断优先级
 207   1        
 208   1        
 209   1        ////EA = 1;               //使能总中断
 210   1        
 211   1      }
 212          
 213          void Delay_ms(unsigned int fui_i)
 214          {
 215   1        unsigned int fui_j;
 216   1        for(;fui_i > 0;fui_i --)
 217   1        for(fui_j = 1596;fui_j > 0;fui_j --);
 218   1      }
 219          
 220          void Delay_2Us(u16 fui_i)
 221          {
 222   1        while(fui_i--);
 223   1      }
 224          
 225          void CLK_Configuration(void)
 226          { 
 227   1        //关总中断
 228   1        //EA=0; 
 229   1        
 230   1        while((CLKCON&0x20)!=0x20);     //  等待内部高频晶振起振
 231   1        CLKSWR = 0x51;                  //选择内部高频RC为系统时钟，内部高频RC32MHZ 2分频，Fosc=16MHz
 232   1        while((CLKSWR&0xC0)!=0x40);     //  等待内部高频切换完成
 233   1        CLKDIV = 0x01;                  //  Fosc1分频得到Fcpu，Fcpu=16MHz
 234   1      }


MODULE INFORMATION:   STATIC OVERLAYABLE
   CODE SIZE        =    420    ----
   CONSTANT SIZE    =   ----    ----
   XDATA SIZE       =   ----    ----
C51 COMPILER V9.60.0.0   MAIN_TEST                                                         03/31/2022 01:48:00 PAGE 5   

   PDATA SIZE       =   ----    ----
   DATA SIZE        =     10    ----
   IDATA SIZE       =   ----    ----
   BIT SIZE         =   ----    ----
END OF MODULE INFORMATION.


C51 COMPILATION COMPLETE.  0 WARNING(S),  0 ERROR(S)
