:030000000200C13A
:0C00C100787FE4F6D8FD7581110201087B
:10024D00010A00010E00010F000108000109000163
:0C025D000C00010D00010B00021000005D
:10000E00E490FE80F0F589758CFA758ACB43A802D0
:04001E0043881022E1
:1002100090FF0E74C0F090FF137460F090FF16749E
:0F022000C0F0A3F090FF00F0A3F0A3F0A3F02232
:1001A200E50F6005B2A6E4F50FE5086005B2A7E425
:1001B200F508E5096005B280E4F509E50C6005B2D1
:1001C20081E4F50CE50D6010B282759930E5983046
:1001D200E1FB5398FDE4F50DE50B6007B283B2969F
:0401E200E4F50B2213
:1002830012026A1202101201E612000ED2AF12011C
:03029300A280FB4B
:03000B00020026CA
:10002600C0E0C0F0C0D075D000C000C004C005C09C
:1000360006C0070511E51170020510AE10FF7C0021
:100046007D0112014DED4C7003750F01AE10AF111D
:100056007C007D0A12014DED4C7003750801AE104F
:10006600AF117C007D1412014DED4C700375090132
:10007600AE10AF117C007D6412014DED4C7003751E
:100086000C01AE10AF117C017DF412014DED4C70E8
:1000960003750D01AE10AF117C037DE812014DED25
:1000A6004C7007750B01F510F511D007D006D00579
:0B00B600D004D000D0D0D0F0D0E03259
:0300230002029640
:10029600C0E0E59830E00985990A750E015398FE8D
:0302A600D0E03273
:1001E60090FF0F74C2F0A37462F090FFA07417F032
:1001F600A37420F075CC0675CEFF75CD98759E0359
:0A02060043981043A81043AA0222F7
:10022F00D3EF9400EE940040147D3C7C06ED1D70DE
:0D023F00011CED4C70F7EF1F70E61E80E310
:01024C00228F
:0B02A900EF1FAC0670011E4C70F62227
:10026A00E58F5420642070F8758E51E58E54C06471
:09027A004070F890FE9104F0229E
:1000CD00020283E493A3F8E493A34003F68001F2C4
:1000DD0008DFF48029E493A3F85407240CC8C33334
:1000ED00C4540F4420C8834004F456800146F6DF03
:1000FD00E4800B010204081020408090024DE47E44
:10010D00019360BCA3FF543F30E509541FFEE493F7
:10011D00A360010ECF54C025E060A840B8E493A3BE
:10012D00FAE493A3F8E493A3C8C582C8CAC583CAE9
:10013D00F0A3C8C582C8CAC583CADFE9DEE780BEA1
:010269000094
:10014D00BC000BBE0029EF8DF084FFADF022E4CC96
:10015D00F875F008EF2FFFEE33FEEC33FCEE9DEC5F
:10016D00984005FCEE9DFE0FD5F0E9E4CEFD22EDA5
:10017D00F8F5F0EE8420D21CFEADF075F008EF2FEF
:10018D00FFED33FD4007985006D5F0F222C398FDE0
:05019D000FD5F0EA227D
:00000001FF
